:020000040800F2
:1000000000280020951200089D1100089F1100088B
:10001000A1110008A3110008A511000800000000AC
:10002000000000000000000000000000A711000810
:10003000A911000800000000AB110008AD11000874
:10004000DD120008DD120008DD120008DD120008D4
:10005000DD120008DD120008DD120008DD120008C4
:10006000DD120008DD120008DD120008B5110008DD
:10007000DD120008DD120008DD120008DD120008A4
:10008000DD120008DD120008C5110008DD120008AD
:10009000DD120008DD120008DD120008DD12000884
:1000A000DD120008DD120008DD120008DD12000874
:1000B000DD120008DD12000800000000DD1200085B
:1000C000DD1200080000000000000000DD12000842
:1000D00000000000DD120008DD1200080000000032
:1000E000DD120008DD120008DD120008000000002B
:1000F0000000000000000000000000000000000000
:0C01000000000000000000005FF808F1A3
:10010C0010B5054C237833B9044B13B10448AFF345
:10011C0000800123237010BD3C040020000000006F
:10012C00DC2F000808B5034B1BB103490348AFF3A0
:10013C00008008BD0000000040040020DC2F0008F7
:10014C0080F0004002E000BF81F0004142001FBF80
:10015C005FEA410392EA030F7FEA226C7FEA236C89
:10016C006AD04FEA1262D2EB1363C1BFD21841407E
:10017C0048404140B8BF5B42192B88BF704710F014
:10018C00004F40F4000020F07F4018BF404211F0B7
:10019C00004F41F4000121F07F4118BF494292EA1F
:1001AC00030F3FD0A2F1010241FA03FC10EB0C004B
:1001BC00C3F1200301FA03F100F0004302D54942D8
:1001CC0060EB4000B0F5000F13D3B0F1807F06D385
:1001DC0040084FEA310102F10102FE2A51D2B1F17D
:1001EC00004F40EBC25008BF20F0010040EA030072
:1001FC007047490040EB0000013A28BFB0F5000FF2
:10020C00EDD2B0FA80FCACF1080CB2EB0C0200FAA7
:10021C000CF0AABF00EBC25052421843BCBFD040F6
:10022C001843704792F0000F81F4000106BF80F470
:10023C0000000132013BB5E74FEA41037FEA226C33
:10024C0018BF7FEA236C21D092EA030F04D092F0FE
:10025C00000F08BF0846704790EA010F1CBF002032
:10026C00704712F07F4F04D1400028BF40F000408F
:10027C00704712F100723CBF00F50000704700F0AF
:10028C00004343F0FE4040F4000070477FEA2262D6
:10029C0016BF08467FEA23630146420206BF5FEAA7
:1002AC00412390EA010F40F4800070474FF00003A7
:1002BC0004E000BF10F0004348BF40425FEA000C6E
:1002CC0008BF704743F0964301464FF000001CE016
:1002DC0050EA010208BF70474FF000030AE000BF6C
:1002EC0050EA010208BF704711F0004302D54042AA
:1002FC0061EB41015FEA010C02BF8446014600201C
:10030C0043F0B64308BFA3F18053A3F50003BCFA36
:10031C008CF2083AA3EBC25310DB01FA02FC6344E3
:10032C0000FA02FCC2F12002BCF1004F20FA02F2EA
:10033C0043EB020008BF20F00100704702F12002DD
:10034C0001FA02FCC2F1200250EA4C0021FA02F23E
:10035C0043EB020008BF20EADC7070474FF0FF0C43
:10036C001CEAD0521EBF1CEAD15392EA0C0F93EA3E
:10037C000C0F6FD01A4480EA010C400218BF5FEAE0
:10038C0041211ED04FF0006343EA501043EA511153
:10039C00A0FB01310CF00040B1F5000F3EBF49004D
:1003AC0041EAD3715B0040EA010062F17F02FD2A51
:1003BC001DD8B3F1004F40EBC25008BF20F0010034
:1003CC00704790F0000F0CF0004C08BF49024CEA4B
:1003DC00502040EA51207F3AC2BFD2F1FF0340EADD
:1003EC00C250704740F400004FF00003013A5DDC4E
:1003FC0012F1190FDCBF00F000407047C2F100028F
:10040C00410021FA02F1C2F1200200FA02FC5FEA7B
:10041C00310040F1000053EA4C0308BF20EADC70C5
:10042C00704792F0000F00F0004C02BF400010F437
:10043C00000F013AF9D040EA0C0093F0000F01F0E4
:10044C00004C02BF490011F4000F013BF9D041EA06
:10045C000C018FE70CEAD15392EA0C0F18BF93EA08
:10046C000C0F0AD030F0004C18BF31F0004CD8D132
:10047C0080EA010000F00040704790F0000F17BFB9
:10048C0090F0004F084691F0000F91F0004F14D0FF
:10049C0092EA0C0F01D142020FD193EA0C0F03D157
:1004AC004B0218BF084608D180EA010000F000405A
:1004BC0040F0FE4040F40000704740F0FE4040F435
:1004CC00400070474FF0FF0C1CEAD0521EBF1CEAD4
:1004DC00D15392EA0C0F93EA0C0F69D0A2EB0302F2
:1004EC0080EA010C49024FEA402037D04FF080538C
:1004FC0043EA111143EA10130CF000408B4238BF51
:10050C005B0042F17D024FF4000C8B4224BF5B1A5E
:10051C0040EA0C00B3EB510F24BFA3EB510340EAAC
:10052C005C00B3EB910F24BFA3EB910340EA9C005A
:10053C00B3EBD10F24BFA3EBD10340EADC001B01CA
:10054C0018BF5FEA1C1CE0D1FD2A3FF650AF8B426E
:10055C0040EBC25008BF20F0010070470CF0004C7B
:10056C004CEA50207F32C2BFD2F1FF0340EAC250A6
:10057C00704740F400004FF00003013A37E792F067
:10058C00000F00F0004C02BF400010F4000F013AC5
:10059C00F9D040EA0C0093F0000F01F0004C02BFC0
:1005AC00490011F4000F013BF9D041EA0C0195E729
:1005BC000CEAD15392EA0C0F08D142027FF47DAFC2
:1005CC0093EA0C0F7FF470AF084676E793EA0C0FB2
:1005DC0004D14B023FF44CAF08466EE730F0004CB0
:1005EC0018BF31F0004CCAD130F000427FF45CAF40
:1005FC0031F000437FF43CAF5FE700BF4FF0FF3CAE
:10060C0006E000BF4FF0010C02E000BF4FF0010C00
:10061C004DF804CD4FEA40024FEA41037FEA226CC9
:10062C0018BF7FEA236C11D001B052EA530C18BFEB
:10063C0090EA010F58BFB2EB030088BFC81738BF50
:10064C006FEAE17018BF40F0010070477FEA226C3E
:10065C0002D15FEA402C05D17FEA236CE4D15FEA3A
:10066C00412CE1D05DF8040B704700BF844608466E
:10067C006146FFE70FB5FFF7C9FF002848BF10F12F
:10068C00000F0FBD4DF808EDFFF7F4FF0CBF012074
:10069C0000205DF808FB00BF4DF808EDFFF7EAFFFE
:1006AC0034BF012000205DF808FB00BF4DF808EDB9
:1006BC00FFF7E0FF94BF012000205DF808FB00BFAE
:1006CC004DF808EDFFF7D2FF94BF012000205DF834
:1006DC0008FB00BF4DF808EDFFF7C8FF34BF012041
:1006EC0000205DF808FB00BF4FEA4002B2F1FE4F5C
:1006FC000FD34FF09E03B3EB12620DD94FEA0023D8
:10070C0043F0004310F0004F23FA02F018BF4042B0
:10071C0070474FF00000704712F1610F01D1420297
:10072C0005D110F0004008BF6FF0004070474FF04B
:10073C000000704700B585B000230193029303932A
:10074C001148124A026083600122027303754FF450
:10075C006021C1614360026101F088F868B900232F
:10076C000193012302930523039301A9064800F08A
:10077C00D3FE28B905B05DF804FB00F093FAEEE760
:10078C0000F090FAF6E700BF580400200024014066
:10079C0010B586B00023029303930493059302686B
:1007AC00224B9A4201D006B010BD044603F56C43AF
:1007BC009A6942F400729A619A6902F4007200928A
:1007CC00009A9A6942F004029A619B6903F004034F
:1007DC000193019B012302930323039302A9144861
:1007EC0001F0DEFA1348144B03600023436083606E
:1007FC008022C2604FF4807202614FF480624261C9
:10080C0020228261C36101F0B9F958B9094B236206
:10081C005C6200221146122001F040F9122001F016
:10082C0075F9C0E700F03EFAF0E700BF0024014084
:10083C0000080140880400200800024070B584B014
:10084C0006460D460021FFF727FF70B900244FF034
:10085C007E513046FFF720FF68B925493046FFF737
:10086C007DFDFFF741FF08221CE006F100462D2319
:10087C002B700124EBE730232B550134EDE71D4998
:10088C0081FB0031C317C3EBA103194603EB8303B0
:10089C00A0EB4303303302F11000684400F80C3C29
:1008AC000846013A002A09DB052AE8D102F11003B7
:1008BC006B442E2103F80C1C013AE0E700238DF861
:1008CC000D3000E0013303F110026A4412F80C2CD5
:1008DC00302AF7D007E003F110026A4412F80C2C0E
:1008EC002A5501340133092BF5DD04B070BD00BF6E
:1008FC0000007A446766666610B4104B1B68104A99
:10090C00A2FB03239B0C0F4A13604FF0E0225469A7
:10091C0000FB03FC9369002104E0E01A024411443B
:10092C00614509D21A464FF0E0239B699A42FAD0EE
:10093C00F3D9D21A1144F3E710BC70470000002021
:10094C0083DE1B43CC04002000B583B00A4B5A69EC
:10095C0042F001025A615B6903F001030193019BB0
:10096C00002211460B2001F099F80B2001F0CEF873
:10097C0003B05DF804FB00BF0010024070B500230B
:10098C00184606E0114A32F8132092B21044013393
:10099C00DBB2272BF6D9FFF789FC0D49FFF792FD47
:1009AC000C4E30600C49FFF7D9FC04460B4D0C493A
:1009BC002868FFF7D3FC01462046FFF7C7FB3060E1
:1009CC002860084B01221A7070BD00BFD0040020B3
:1009DC000000204220050020CDCC4C3E28050020F4
:1009EC00CDCC4C3F240500202DE9F04188B00024EB
:1009FC000494059406940794264B9A6942F02002BD
:100A0C009A619A6902F020020192019A9A6942F065
:100A1C0004029A619A6902F004020292029A9A699B
:100A2C0042F008029A619B6903F008030393039B4D
:100A3C00DFF8648022464FF48871404601F0C7FA13
:100A4C00164D22464FF44071284601F0C0FA4FF47F
:100A5C00887304930127059706940226079604A928
:100A6C00404601F09DF94FF47043049305940694AD
:100A7C0004A9284601F094F94FF4407304930597A8
:100A8C000694079604A9284601F08AF908B0BDE837
:100A9C00F08100BF0010024000080140000C014032
:100AAC0010B5114C01224FF40071204601F08FFA61
:100ABC0001224FF48071204601F089FA0220FFF7E1
:100ACC001BFF00224FF40071204601F080FA022037
:100ADC00FFF712FF00224FF48071204601F077FAE5
:100AEC000220FFF709FF10BD000C014010B50D4CA2
:100AFC0001224FF48071204601F069FA00224FF474
:100B0C000071204601F063FA0220FFF7F5FE012286
:100B1C004FF40071204601F05AFA0220FFF7ECFE68
:100B2C0010BD00BF000C014038B5154C01224FF42C
:100B3C000071204601F04BFA01224FF480712046DF
:100B4C0001F045FA0220FFF7D7FE00244FF40071A4
:100B5C000B4801F035FA054630B10134FA2CF5DDBD
:100B6C00FFF7C4FF012508E000224FF48071044810
:100B7C0001F02DFA0220FFF7BFFE284638BD00BF5A
:100B8C00000C014070B50446002519E000224FF41A
:100B9C000071164801F01BFA144E01224FF48071BB
:100BAC00304601F014FA0220FFF7A6FE00224FF4A3
:100BBC008071304601F00BFA6400E4B20135EDB2FD
:100BCC00072D12D800224FF48071084801F0FFF96C
:100BDC000220FFF791FE14F0800FD7D001224FF4C2
:100BEC000071024801F0F3F9D6E770BD000C01402A
:100BFC0008B54FF480512A4801F0E2F970B90A2087
:100C0C0000F0B2FB4FF48051254801F0D9F90028CF
:100C1C00F8D00A2000F0A8FB012008BD4FF40051C9
:100C2C001F4801F0CDF968B14FF480411C4801F028
:100C3C00C7F9B0B14FF40041194801F0C1F9F8B14E
:100C4C000020EAE70A2000F08FFB4FF40051144813
:100C5C0001F0B6F90028F8D00A2000F085FB02203C
:100C6C00DBE70A2000F080FB4FF480410C4801F0D8
:100C7C00A7F90028F8D00A2000F076FB0320CCE777
:100C8C000A2000F071FB4FF40041054801F098F97F
:100C9C000028F8D00A2000F067FB0420BDE700BF55
:100CAC00000C014072B6FEE700B595B02822002179
:100CBC000DEB020002F0CAF800230593069307938C
:100CCC0008930993019302930393049302230A93C9
:100CDC0001220E9210220F9211934FF46013139372
:100CEC000AA801F091F9C8B90F23059302210691C6
:100CFC00002307934FF480620892099305A801F032
:100D0C00C9FB68B9022301934FF40043039301A874
:100D1C0001F09CFC30B915B05DF804FBFFF7C2FF85
:100D2C00FFF7C0FFFFF7BEFF10B584B000F0F8FA74
:100D3C00FFF7BAFFFFF758FEFFF706FEFFF7FAFCC6
:100D4C0000F0A8F900F042FA224C204600F012FE06
:100D5C0000F0ACF8002000F015F91F4B7F221A7040
:100D6C003023019300230293ADF80C304FF0FF3386
:100D7C0007221A491A4801F0D8FF2822194920469F
:100D8C0000F0B0FC15E0144A1378013B1370164BBD
:100D9C001B785BB11549164B1868FFF7DFFA014653
:100DAC00144800F05BF9104B00221A700A2000F076
:100DBC00DBFA094B1978132000F01EF8FFF718FF27
:100DCC000228E0D00128E2D1034A137801331370D2
:100DDC00DDE700BF580400202C050020F42F00088C
:100DEC0088050020D004002024050020245E9E3BB2
:100DFC00200500200000A04030B583B08DF807001E
:100E0C008DF80610114C00221021204601F0DFF85D
:100E1C00002000F0A9FA0E4D4FF6FF7301220DF1E0
:100E2C000701284601F0F5FD4FF6FF7301220DF185
:100E3C000601284601F0EDFD002000F095FA012294
:100E4C001021204601F0C3F803B030BD000801406A
:100E5C003005002010B50446FFF722FE7820FFF77E
:100E6C0091FEFFF761FE0020FFF78CFEFFF75CFEA2
:100E7C002046FFF787FEFFF757FEFFF737FE10BD42
:100E8C0010B50446FFF70CFE7820FFF77BFEFFF74A
:100E9C004BFE4020FFF776FEFFF746FE2046FFF79D
:100EAC0071FEFFF741FEFFF721FE10BD08B564206F
:100EBC0000F05AFAAE20FFF7CDFF2020FFF7CAFF53
:100ECC001020FFF7C7FFB020FFF7C4FFC820FFF7C3
:100EDC00C1FF0020FFF7BEFF1020FFF7BBFF402033
:100EEC00FFF7B8FF8120FFF7B5FFFF20FFF7B2FF38
:100EFC00A120FFF7AFFFA620FFF7ACFFA820FFF75C
:100F0C00A9FF3F20FFF7A6FFA420FFF7A3FFD320E4
:100F1C00FFF7A0FF0020FFF79DFFD520FFF79AFFFA
:100F2C00F020FFF797FFD920FFF794FF2220FFF75F
:100F3C0091FFDA20FFF78EFF1220FFF78BFFDB20EB
:100F4C00FFF788FF2020FFF785FF8D20FFF782FF3A
:100F5C001420FFF77FFFAF20FFF77CFF08BD10B513
:100F6C000446A1F15000C0B2FFF774FF200940F015
:100F7C001000FFF76FFF04F00E0040F00100FFF7C8
:100F8C0069FF10BD70B50546002609E02846FFF73D
:100F9C0077FF0134E4B214F0800FF7D00136F6B2CB
:100FAC00072E0CD8A6F15000C0B2FFF753FF00205B
:100FBC00FFF750FF1020FFF74DFF0024EBE770BD4B
:100FCC002DE9F843064688469146002720E004EBBD
:100FDC000513194AD05CFFF753FF0134E4B2072C18
:100FEC00F5D908F10101C9B23046FFF7B8FF00246A
:100FFC0008E004EB051308330F4AD05CFFF740FF01
:10100C000134E4B2072CF4D90836F6B20137FFB23A
:10101C0019F8075075B1203DEDB2782E04D908F1BE
:10102C0001085FFA88F8002641463046FFF797FF23
:10103C000024D4E7BDE8F8831030000830B587B041
:10104C0004460D4601A91046FFF7F8FB01AA2946F4
:10105C002046FFF7B5FF07B030BD000038B5054698
:10106C000C460A4A00210846FFF7AAFF2A4600212F
:10107C004020FFF7E3FF064A02210020FFF7A0FF04
:10108C00224602214020FFF7D9FF38BDFC2F000873
:10109C000830000808B50E480E4B03604FF48273FD
:1010AC00436000238360C360036143614FF40072AB
:1010BC0082612822C2610362436283620A23C36293
:1010CC0001F04CFC00B908BDFFF7ECFDFBE700BFDD
:1010DC00300500200030014010B586B0002302938B
:1010EC000393049305930268164B9A4201D006B001
:1010FC0010BD03F560439A6942F480529A619A6973
:10110C0002F480520092009A9A6942F004029A61A9
:10111C009B6903F004030193019BA0230293022318
:10112C00039303230593084C02A9204600F038FED4
:10113C004023029300230393049302A9204600F05A
:10114C002FFED4E7003001400008014082B00E4B66
:10115C009A6942F001029A619A6902F001020092C6
:10116C00009ADA6942F08052DA61DB6903F080534D
:10117C000193019B054A536823F0E06343F000732D
:10118C00536002B0704700BF0010024000000140E5
:10119C00FEE7FEE7FEE7FEE7FEE7704770477047A5
:1011AC0008B500F0CFF808BD08B5024800F056FDB0
:1011BC0008BD00BF8804002008B5024800F018F9EB
:1011CC0008BD00BF580400207047000008B50A484D
:1011DC000A4B03604FF4E133436000238360C36028
:1011EC0003610C2242618361C36101F06FFD00B9A0
:1011FC0008BDFFF757FDFBE78805002000380140CC
:10120C0010B586B0002302930393049305930268F0
:10121C001A4B9A4201D006B010BD03F558439A6997
:10122C0042F480429A619A6902F480420092009AD8
:10123C009A6942F008029A619B6903F008030193D2
:10124C00019B4023029302230393032305930C4C2D
:10125C0002A9204600F0A4FD8023029300230393EF
:10126C00049302A9204600F09BFD064A536843F004
:10127C00E06343F004035360CDE700BF0038014046
:10128C00000C0140000001400C480D490D4A0023A0
:10129C0002E0D458C4500433C4188C42F9D30A4A1F
:1012AC000A4C002301E013600432A242FBD3FFF787
:1012BC008BFF01F0A7FDFFF737FD70470000002002
:1012CC003C0400203C3600083C040020D4050020DF
:1012DC00FEE7000010B504460E4B18784FF47A73F5
:1012EC00B3FBF0F30C4A1068B0FBF3F000F01CFCFD
:1012FC0068B90F2C01D901200AE0002221464FF0D9
:10130C00FF3000F0CBFB054B1C60002000E00120FF
:10131C0010BD00BF040000200000002008000020C9
:10132C0008B5074A136843F010031360032000F05C
:10133C00A3FB0F20FFF7CEFFFFF708FF002008BD2F
:10134C0000200240034A1168034B1B780B441360C6
:10135C00704700BFCC05002004000020014B18682A
:10136C00704700BFCC05002038B50446FFF7F6FFE8
:10137C000546B4F1FF3F02D0044B1B781C44FFF729
:10138C00EDFF401BA042FAD338BD00BF0400002083
:10139C0008B5436A9A6A12F0500F1ED19A6A42F449
:1013AC0000729A621A68926802F46022B2F5602F99
:1013BC0003D01846FFF7E2FA08BD1A7B002AF8D1D1
:1013CC009A6A22F480729A629A6A12F4805FF0D15F
:1013DC009A6A42F001029A62EBE71B6A1B6B984710
:1013EC00EAE7704708B5406AFFF7FBFF08BD704796
:1013FC0010B5044603685A6812F0200F18D01A680A
:10140C0012F0020F14D0826A12F0100F03D1826A0C
:10141C0042F4007282629A6802F46022B2F5602F84
:10142C0038D02046FFF7AAFA23686FF012021A6030
:10143C0023685A6812F0800F22D01A6812F0040F39
:10144C001ED0A26A12F0100F03D1A26A42F400520D
:10145C00A2629A6802F4E042B2F5E04F31D05A68C9
:10146C0012F4806F05D19A6802F46022B2F5602FF5
:10147C0024D0204600F0FEFA23686FF00C021A60AC
:10148C0023685A6812F0400F03D01B6813F0010F49
:10149C0028D110BD227B002AC3D15A6822F0200229
:1014AC005A60A36A23F48073A362A36A13F4805F67
:1014BC00B7D1A36A43F00103A362B2E7227B002AEF
:1014CC00D7D15A6822F080025A60A36A23F4805361
:1014DC00A362A36A13F4807FCBD1A36A43F0010308
:1014EC00A362C6E7A36A43F48033A3622046FFF7E6
:1014FC007EFF23686FF001021A60CAE7704708B5D7
:10150C00406A836A43F040038362C36A43F0040376
:10151C00C362FFF7F3FF08BD30B482B00022019222
:10152C0090F82420012A00F091800346012280F8D3
:10153C0024204A68062A2DD80468606B02EB8202CC
:10154C00053A4FF01F0C0CFA02FC20EA0C000D6857
:10155C0005FA02F2024362630A68092A3AD91C6846
:10156C00E06802EB42021E3A4FF0070C0CFA02FC48
:10157C0020EA0C008D6805FA02F20243E2600A6868
:10158C00103A012A36D90020002283F8242002B018
:10159C0030BC70470C2A0ED80568286B02EB82020F
:1015AC00233A1F24944020EA04000C6804FA02F247
:1015BC0002432A63D0E70568E86A02EB8202413AEB
:1015CC001F24944020EA04000C6804FA02F202433F
:1015DC00EA62C1E71C68206902EB42024FF0070C7B
:1015EC000CFA02FC20EA0C008D6805FA02F20243A8
:1015FC002261C4E71A681648824205D09A6A42F002
:10160C0020029A620120BFE7906810F4000F1BD1F2
:10161C00906840F4000090600A68102A01D0002005
:10162C00B2E70C4A12680C49A1FB0212920C02EBB5
:10163C0082025200019202E0019A013A0192019A4F
:10164C00002AF9D100209FE700209DE702209EE7A9
:10165C00002401400000002083DE1B4330B583B022
:10166C000023019303689A6812F0010F33D10446EA
:10167C009A6842F001029A60184B1B68184AA2FB48
:10168C0003239B0C019302E0019B013B0193019B03
:10169C00002BF9D1FFF762FE054623689B6813F017
:1016AC00010F16D1FFF75AFE431B022BF5D9236805
:1016BC009B6813F0010FF0D1A36A43F01003A362EF
:1016CC00E36A43F00103E362002384F82430012031
:1016DC0002E0002000E0002003B030BD000000203C
:1016EC0083DE1B43F8B504460D4616460168444894
:1016FC00814259D0434B994256D094F82430012B57
:10170C007CD0012384F824302046FFF7A7FF07463E
:10171C0000286ED1A16A21F4706121F0010141F41D
:10172C008071A1622268374B9A4244D0A36A23F499
:10173C008013A362536813F4806F05D0A36A23F45B
:10174C00405343F48053A362A36A13F4805F48D0E0
:10175C00E36A23F00603E362002384F82430236A4F
:10176C00294A9A62236A294ADA62236A284A1A6346
:10177C0023686FF002021A602268936843F4807346
:10178C009360216833462A464C31206A00F02CFACB
:10179C0023689A6802F46022B2F5602F24D09A680C
:1017AC0042F480129A6027E0154B5B6813F4702F9B
:1017BC00A3D0012720E0A3F580635B6813F4702F9E
:1017CC00B4D0A36A43F48013A3620D4B5B6813F48B
:1017DC00806FB9D0A36A23F4405343F48053A362BF
:1017EC00B2E70023E362B7E79A6842F4A0029A607A
:1017FC0002E0002384F824303846F8BD0227FBE7CA
:10180C0000240140002801409D130008F11300083A
:10181C000B15000838B503689A6812F0010F01D156
:10182C00002038BD04469A6822F001029A60FFF746
:10183C0095FD054623689B6813F0010F13D0FFF745
:10184C008DFD431B022BF5D923689B6813F0010F08
:10185C00F0D0A36A43F01003A362E36A43F00103E0
:10186C00E3620120DDE70020DBE7000000287BD0ED
:10187C0070B50446836A002B4DD02046FFF7CAFF93
:10188C00A36A13F0100369D1002867D1A26A22F46D
:10189C00885222F0020242F00202A2626268E169FE
:1018AC000A43217B42EA4102A568B5F5807F02D04C
:1018BC00012D36D01D46267D012E35D02668716847
:1018CC0021F46941294371602568AE68274931408C
:1018DC001143A960A168B1F5807F01D0012902D123
:1018EC002369013B1B052568E96A21F470010B4350
:1018FC00EB62236899681E4B0B409A4225D0A36A71
:10190C0023F0120343F01003A362E36A43F00103D4
:10191C00E362012027E0C36280F82430FEF738FF31
:10192C00ABE74FF48075C6E731B9A169013945EAD7
:10193C00413141F40065C1E7A16A41F02001A16287
:10194C00E16A41F00101E162B8E70023E362A36AB6
:10195C0023F0030343F00103A36204E0A36A43F002
:10196C001003A362012070BD01207047FDF7E1FF59
:10197C00FE0E1FFF70B582B00023019390F8243047
:10198C00012B72D00446012380F82430FFF742FF6C
:10199C00054628B1002384F82430284602B070BDD7
:1019AC00A36A23F4885323F0020343F00203A362D7
:1019BC002F4B1E68022000F0D5FEB6FBF0F6760029
:1019CC00019602E0019B013B0193019B002BF9D195
:1019DC002046FFF743FE2268936843F008039360A8
:1019EC00FFF7BCFC064623689A6812F0080F14D067
:1019FC00FFF7B4FC801B0A28F5D923689B6813F009
:101A0C00080FF0D0A36A23F0120343F01003A36273
:101A1C00002384F824300125BFE79A6842F00402C1
:101A2C009A60FFF79BFC064623689B6813F0040F33
:101A3C0014D0FFF793FC801B0A28F5D923689B6808
:101A4C0013F0040FF0D0A36A23F0120343F0100339
:101A5C00A362002384F8243001259EE7A36A23F0B7
:101A6C00030343F00103A36294E7022595E700BF4B
:101A7C000000002070470000074AD36823F4E0639D
:101A8C001B041B0C000200F4E060034343F0BF6333
:101A9C0043F40033D360704700ED00E000B5194B00
:101AAC00DB68C3F30223C3F1070CBCF1040F28BF9E
:101ABC004FF0040C03F1040EBEF1060F18D9033BD2
:101ACC004FF0FF3E0EFA0CFC21EA0C0199400EFA85
:101ADC0003F322EA0303194300280BDB0901C9B203
:101AEC0000F1604000F5614080F800135DF804FBE4
:101AFC000023E5E700F00F000901C9B2024B1954AD
:101B0C00F4E700BF00ED00E014ED00E0002807DB77
:101B1C0000F01F02400901239340024A42F8203092
:101B2C00704700BF00E100E00138B0F1807F0BD2BC
:101B3C004FF0E0235861054AF02182F82310002071
:101B4C00986107221A6170470120704700ED00E090
:101B5C0030B40124056CAC40C56B6C6004686360E8
:101B6C004368102B05D0036899600368DA6030BCB9
:101B7C00704703689A600368D960F8E760B310B4E3
:101B8C0002460168154B0B441548A0FB03031B09C7
:101B9C009B001364134BD363022382F82130086833
:101BAC0020F47F5020F03000536894682343D468AD
:101BBC002343146923435469234394692343D4690D
:101BCC00234303430B6000209063012382F82130F0
:101BDC0082F8200010BC704701207047F8FFFDBF51
:101BEC00CDCCCCCC0000024038B5044690F8200097
:101BFC00012831D0012084F8200094F8210001281C
:101C0C0004D0002384F82030022038BD022084F850
:101C1C0021000020A0632568286820F001002860BE
:101C2C002046FFF795FFE36A5BB12268136843F027
:101C3C000E0313602268136843F001031360002045
:101C4C00E3E72268136823F0040313602268136827
:101C5C0043F00A031360EDE70220D6E738B5C36BF7
:101C6C001A6804682568016C04238B40134235D034
:101C7C0015F0040F32D0236813F0200F03D1236822
:101C8C0023F0040323600368434A934214D01432B4
:101C9C00934218D01432934217D01432934217D077
:101CAC001432934217D01432934202D04FF0806218
:101CBC0003E04FF4800200E00422384B5A60C36A00
:101CCC0003B1984738BD4022F7E74FF48062F4E740
:101CDC004FF48042F1E74FF48022EEE702238B4071
:101CEC0013423CD015F0020F39D0236813F0200FAB
:101CFC0006D1236823F00A032360012380F82130E6
:101D0C000368254A934214D0143293421CD01432E7
:101D1C0093421BD0143293421BD0143293421BD0EB
:101D2C001432934202D04FF0007203E04FF40012D1
:101D3C0000E00222194B5A60002380F82030836A9D
:101D4C00002BBFD09847BDE72022F3E74FF4007279
:101D5C00F0E74FF40052EDE74FF40032EAE70823C6
:101D6C0003FA01F11142ADD015F0080FAAD0236887
:101D7C0023F00E032360026CC16B012303FA02F201
:101D8C004A60836380F82130002380F82030036B95
:101D9C00002B97D0984795E70800024000000240BE
:101DAC0070B582B00024A4468BE07F4DAA4210D0BF
:101DBC0007D97E4DAA420CD005F58035AA4208D031
:101DCC0015E0A5F58015AA4203D005F57025AA42A9
:101DDC0009D18A68002A00F0BF80012A00F0B78080
:101DEC004361082403E0A5F58015AA42F1D0BEF1A9
:101DFC00FF0F00F2B3800646BEF1FF0F00F2B08079
:101E0C004FEA8C0233680F25954023EA050304FA48
:101E1C0002F2134333604B6813F0805F4FD0644B76
:101E2C009A6942F001029A619B6903F001030193E4
:101E3C00019B4FEA9C02951C5E4B53F825600CF0FD
:101E4C0003039D000F23AB4026EA03065A4B98422E
:101E5C0000F08C8003F58063984200F0898003F5D4
:101E6C008063984200F080800323AB4033430232FE
:101E7C00504D45F822304B6813F4803F7AD04F4ACE
:101E8C00136843EA0E0313604B6813F4003F77D0DA
:101E9C004A4A536843EA0E0353604B6813F4801F9D
:101EAC0074D0464A936843EA0E0393604B6813F46C
:101EBC00001F71D0414AD36843EA0E03D3600CF182
:101ECC00010C0A6832FA0CF36CD0012303FA0CF300
:101EDC0002EA030E33EA0202F1D14A68122A3FF6F3
:101EEC0064AF122A83D801A555F822F0DF1D000833
:101EFC00451F00084F1F0008611F0008FB1D00084C
:101F0C00FB1D0008FB1D0008FB1D0008FB1D000845
:101F1C00FB1D0008FB1D0008FB1D0008FB1D000835
:101F2C00FB1D0008FB1D0008FB1D0008FB1D000825
:101F3C00491F0008551F0008CC6858E7CC680434CA
:101F4C0055E7CC68083452E7CC680C344FE7036192
:101F5C0008244CE700244AE7042448E7061D4BE715
:101F6C00ACF1080292004DE702237EE700237CE7E8
:101F7C0001237AE7114A136823EA0E03136083E7FF
:101F8C000E4A536823EA0E03536086E70B4A9368A4
:101F9C0023EA0E03936089E7084AD36823EA0E0309
:101FAC00D3608CE702B070BD00002210000031102D
:101FBC0000100240000001400008014000040140F4
:101FCC008368194201D001207047002070470AB184
:101FDC0001617047090401617047000082B0084B31
:101FEC001B68084AA2FB03235B0A00FB03F3019363
:101FFC0000BF019B5A1E0192002BF9D102B0704711
:10200C0000000020D34D6210002800F0F18170B563
:10201C0082B00446036813F0010F2CD0994B5B6817
:10202C0003F00C03042B1DD0964B5B6803F00C03E0
:10203C00082B12D06368B3F5803F41D0002B55D1EB
:10204C0003F1804303F504331A6822F480321A60DA
:10205C001A6822F480221A6037E08A4B5B6813F40A
:10206C00803FE7D0874B1B6813F4003F03D06368B5
:10207C00002B00F0BF81236813F0020F75D0814B49
:10208C005B6813F00C0F5FD07E4B5B6803F00C03A6
:10209C00082B54D02369002B00F08A807A4B012244
:1020AC001A60FFF75BF90546764B1B6813F0020FBD
:1020BC0075D1FFF753F9401B0228F5D903209EE197
:1020CC00704A136843F480331360636843B3FFF7BB
:1020DC0045F905466B4B1B6813F4003FCBD1FFF75A
:1020EC003DF9401B6428F5D9032088E1B3F5A02FF6
:1020FC0009D0644B1A6822F480321A601A6822F4F0
:10210C0080221A60E1E703F18043A3F53C331A689F
:10211C0042F480221A601A6842F480321A60D4E7C2
:10212C00FFF71CF90546574B1B6813F4003FA2D070
:10213C00FFF714F9401B6428F5D903205FE1514BDC
:10214C005B6813F4803FA5D14E4B1B6813F0020F54
:10215C0003D02369012B40F04F814A4A136823F0C6
:10216C00F803616943EAC1031360236813F0080F95
:10217C0033D0A369002B5CD0434B0122C3F88024DD
:10218C00FFF7ECF805463F4B5B6A13F0020F21D1C9
:10219C00FFF7E4F8401B0228F5D903202FE1394A58
:1021AC00136823F0F803616943EAC1031360DCE7A9
:1021BC00354B00221A60FFF7D1F80546314B1B68EE
:1021CC0013F0020FD1D0FFF7C9F8401B0228F5D944
:1021DC00032014E10120FFF701FF236813F0040F23
:1021EC0000F09680274BDB6913F0805F34D1254BD0
:1021FC00DA6942F08052DA61DB6903F080530193B3
:10220C00019B0125214B1B6813F4807F26D0E368CA
:10221C00012B3DD0002B53D103F1804303F5043344
:10222C001A6A22F001021A621A6A22F004021A6275
:10223C0033E0154B0022C3F88024FFF78FF80546D6
:10224C00104B5B6A13F0020FC7D0FFF787F8401BE7
:10225C000228F5D90320D2E00025D3E70B4A1368F6
:10226C0043F480731360FFF779F80646074B1B683D
:10227C0013F4807FCBD1FFF771F8801B6428F5D95C
:10228C000320BCE0001002400000424200700040FD
:10229C005F4A136A43F001031362E36833B3FFF739
:1022AC005DF806465A4B1B6A13F0020F2FD1FFF74D
:1022BC0055F8801B41F288339842F3D903209EE0F5
:1022CC00052B09D0524B1A6A22F001021A621A6AC3
:1022DC0022F004021A62E0E74D4B1A6A42F0040243
:1022EC001A621A6A42F001021A62D6E7FFF736F850
:1022FC000646474B1B6A13F0020F08D0FFF72EF867
:10230C00801B41F288339842F3D9032077E0E5B97A
:10231C00E369002B72D03E4A526802F00C02082A84
:10232C0056D0022B17D03B4B00221A66FFF716F83B
:10233C000446374B1B6813F0007F47D0FFF70EF8AD
:10234C00001B0228F5D9032059E0314AD36923F048
:10235C008053D361DCE72F4B00221A66FEF7FEFF99
:10236C0005462B4B1B6813F0007F06D0FEF7F6FFDB
:10237C00401B0228F5D9032041E0236AB3F5803FC6
:10238C001AD023494B6823F47413226A606A0243FF
:10239C0013434B601F4B01221A66FEF7DFFF044606
:1023AC001B4B1B6813F0007F0ED1FEF7D7FF001BF1
:1023BC000228F5D9032022E0154A536823F4003390
:1023CC00A1680B435360DCE7002018E0002016E006
:1023DC00012B16D00E4B5B6803F48031226A9142BC
:1023EC0011D103F47013626A93420ED1002006E0FF
:1023FC0001207047012002E0012000E0002002B023
:10240C0070BD0120FBE70120F9E70120F7E700BFD1
:10241C00001002400000424286B0194B0FCB0DF168
:10242C00180C0CE90F0040F20123ADF80430154BE9
:10243C005A6802F00C03042B1CD0082B1CD1C2F3DD
:10244C00834318336B4413F8100C12F4803F0DD0F7
:10245C000C4B5B68C3F3404318336B4413F8143CC8
:10246C00094A02FB00F0B0FBF3F006E0074B03FB5C
:10247C0000F002E0044800E0054806B0704700BFD9
:10248C001836000800100240001BB70000093D0080
:10249C0000127A00002800F0A08070B50D460446AA
:1024AC00524B1B6803F007038B420BD24F4A136845
:1024BC0023F007030B431360136803F007038B42ED
:1024CC0040F08D80236813F0020F17D013F0040F27
:1024DC0004D0474A536843F4E0635360236813F015
:1024EC00080F04D0424A536843F460535360404A87
:1024FC00536823F0F003A1680B435360236813F077
:10250C00010F31D06368012B20D0022B25D0384A23
:10251C00126812F0020F64D035494A6822F00302A7
:10252C0013434B60FEF71AFF0646314B5B6803F012
:10253C000C036268B3EB820F16D0FEF70FFF801B03
:10254C0041F288339842F0D9032045E0284A1268BA
:10255C0012F4003FE0D101203EE0254A126812F04F
:10256C00007FD9D1012037E0204B1B6803F0070313
:10257C00AB420AD91D4A136823F007032B4313609F
:10258C00136803F00703AB422DD1236813F0040F3B
:10259C0006D0174A536823F4E063E1680B43536099
:1025AC00236813F0080F07D0114A536823F46053C3
:1025BC00216943EAC1035360FFF72EFF0C4B5B68A4
:1025CC00C3F303130B4AD35CD8400B4B18600B4B73
:1025DC001868FEF77FFE002070BD012070470120B7
:1025EC00FAE70120F8E70120F6E700BF00200240DF
:1025FC0000100240003600080000002008000020F7
:10260C00014B1868704700BF0000002008B5FFF7A9
:10261C00F7FF044B5B68C3F30223034AD35CD84037
:10262C0008BD00BF001002401036000808B5FFF7C7
:10263C00E7FF044B5B68C3F3C223034AD35CD84067
:10264C0008BD00BF001002401036000870B582B003
:10265C000446036813F0010F36D03F4BDB6913F0CF
:10266C00805F49D13C4BDA6942F08052DA61DB6918
:10267C0003F080530193019B0125384B1B6813F425
:10268C00807F3BD0344B1B6A13F4407313D06268C9
:10269C0002F440729A420ED02F4A136A23F440700F
:1026AC002F490126C1F840640026C1F8406410622D
:1026BC0013F0010F36D1284A136A23F44073616872
:1026CC000B431362002D3ED1236813F0020F06D08A
:1026DC00214A536823F44043A1680B435360236899
:1026EC0013F0100F34D01C4A536823F48003E168B4
:1026FC000B43536000202CE00025BEE7174A1368FB
:10270C0043F480731360FEF729FE0646134B1B68D7
:10271C0013F4807FB6D1FEF721FE801B6428F5D917
:10272C00032016E0FEF71AFE06460B4B1B6A13F04D
:10273C00020FC0D1FEF712FE801B41F28833984283
:10274C00F3D9032005E0D36923F08053D361BBE7B1
:10275C00002002B070BD00BF0010024000700040AD
:10276C000000424200B587B08446384B0FCB0DF1C8
:10277C00180E0EE90F0040F20123ADF80430BCF145
:10278C00020F55D0BCF1100F06D0BCF1010F2ED0AA
:10279C00002007B05DF804FB2D4B5A68186810F048
:1027AC008070F6D0C2F3834318336B4413F8100CCB
:1027BC0012F4803F17D0264B5B68C3F340431833A9
:1027CC006B4413F8142C234BB3FBF2F303FB00F014
:1027DC001F4B5B6813F4800FDBD140001E4BA3FB37
:1027EC0000304008D5E71D4B03FB00F0F0E7184B19
:1027FC001B6A40F202321A40B2F5817F23D003F4F7
:10280C004073B3F5007F04D0B3F5407F09D00020AE
:10281C00BFE70F4A526A12F0020FF5D049F640405A
:10282C00B7E70B4B186810F40030B2D00C48B0E787
:10283C00FFF7FCFE064B5B68C3F3813301335B008F
:10284C00B0FBF3F0A5E74FF40040A2E71836000800
:10285C0000100240001BB700ABAAAAAA00093D0059
:10286C00366E01002DE9F04782B0054688461746C2
:10287C001E46FEF773FD0A9B1B1A03EB0609FEF7B7
:10288C006DFD82462B4B1B68C3F3CB3309FB03F363
:10289C0001932B689C6838EA04030CBF4FF0010CC1
:1028AC004FF0000CBC4540D0B6F1FF3FF1D0FEF725
:1028BC0055FDA0EB0A0048450AD2B9F1000F07D02C
:1028CC00019A02B14A46019B013B01939146E0E714
:1028DC002A68536823F0E00353606B68B3F5827F7A
:1028EC000BD0AB6AB3F5005F14D0012385F85130DF
:1028FC00002385F85030032018E0AB68B3F5004F87
:10290C0002D0B3F5806FECD12A68136823F0400332
:10291C001360E6E72A68136823F4005313602A68EF
:10292C00136843F400531360DFE7002002B0BDE8E6
:10293C00F08700BF0000002010B582B004460B46A3
:10294C00009200228021FFF78DFF08B902B010BD64
:10295C00636D43F0200363650320F7E7002856D02E
:10296C0010B50446436A33B94368B3F5827F05D08A
:10297C000023C36102E00023036143610023A362CF
:10298C0094F85130002B3CD0022384F8513022684B
:10299C00136823F040031360636803F48273A26826
:1029AC0002F404421343E26802F400621343226906
:1029BC0002F002021343626902F001021343A2699E
:1029CC0002F400721343E26902F038021343226AE4
:1029DC0002F080021343A26A02F4005221681343EE
:1029EC000B60638B226803F0040353602268D36985
:1029FC0023F40063D36100206065012384F8513017
:102A0C0010BD84F850302046FEF766FBBCE7012071
:102A1C0070472DE9F04383B01D4690F85030012BE0
:102A2C0000F0D180044688469146012380F850304E
:102A3C00FEF794FC074694F85160F6B2012E40F074
:102A4C00AF80B8F1000F00F0AC80B9F1000F00F0CE
:102A5C00A880032384F8513000236365C4F83080C8
:102A6C00A4F83490A4F83690A363A387E387636437
:102A7C002364A368B3F5004F1ED023681A6812F0C4
:102A8C00400F03D11A6842F040021A60E368B3F5B4
:102A9C00006F1CD0636813B1B9F1010F52D1226BD6
:102AAC00236812781A73236B01332363E38E9BB272
:102ABC00013B9BB2E38645E02268136823F0400398
:102ACC0013602268136843F480431360D5E763688E
:102ADC0013B1B9F1010F16D1226B23681288DA6099
:102AEC00236B02332363E38E9BB2013B9BB2E386E1
:102AFC0009E0FEF733FCC01BA84202D3B5F1FF3F3F
:102B0C0059D1002D59D0E38E9BB2002B33D02368C2
:102B1C009A6812F0020FECD0226B1288DA60236BE9
:102B2C0002332363E38E9BB2013B9BB2E386EAE75D
:102B3C00FEF714FCC01BA84202D3B5F1FF3F3ED1F7
:102B4C00002D3ED0E38E9BB2ABB123689A6812F095
:102B5C00020FEDD0226B12781A73236B01332363AF
:102B6C00B4F836C01FFA8CFC0CF1FF3C1FFA8CFC3D
:102B7C00A4F836C0E6E73A4629462046FFF7DCFEC5
:102B8C0008B120236365A36833B901932368DA681D
:102B9C0001929B680193019B636D13B9002600E0C1
:102BAC000226012384F85130002384F8503030463B
:102BBC0003B0BDE8F0830326F3E70326F1E7032611
:102BCC00EFE70326EDE70226F1E7000010B5044617
:102BDC000268136923F44053C1680B431361836883
:102BEC000269134342691A430168CB6823F4B0535A
:102BFC0023F00C031343CB600268536923F4407336
:102C0C0081690B4353610268134B9A4220D0FFF742
:102C1C00FDFC024602EB820202EB820263689B001F
:102C2C00B2FBF3F20D48A0FB02314909642303FB0C
:102C3C0011231B013233A0FB03235B0903F0F002C9
:102C4C0002EB011203F00F03216813448B6010BDDB
:102C5C00FFF7ECFC0246DDE7003801401F85EB5125
:102C6C002DE9F84305460F4616469946DDF82080B7
:102C7C002C68246837EA04030CBF4FF0010C4FF0AA
:102C8C00000CB4451FD1B8F1FF3FF1D0B8F1000FE3
:102C9C0005D0FEF763FBA0EB09004045E8D92A6894
:102CAC00D36823F4D073D3602A68536923F00103EB
:102CBC005361202385F83D3085F83E30002385F89C
:102CCC003C30032000E00020BDE8F88358B310B579
:102CDC00044690F83D300BB3242384F83D30226831
:102CEC00D36823F40053D3602046FFF76FFF2268AC
:102CFC00136923F4904313612268536923F02A0368
:102D0C0053612268D36843F40053D36000202064DD
:102D1C00202384F83D3084F83E3010BD80F83C30E0
:102D2C00FEF76EFAD8E7012070472DE9F04182B02A
:102D3C001E4690F83D30DBB2202B54D104460D4694
:102D4C009046002953D0002A53D090F83C30012BE8
:102D5C0051D0012380F83C3000230364212380F8F8
:102D6C003D30FEF7FBFA0746A4F82480A4F8268031
:102D7C00A368B3F5805F05D04FF00008002384F8FA
:102D8C003C3012E0236913B14FF00008F6E7A84677
:102D9C000025F3E738F8023B2268C3F308035360BD
:102DAC00E28C92B2013A92B2E284E38C9BB273B1A0
:102DBC0000963B46002280212046FFF751FFE0B9E8
:102DCC00002DE7D015F8012B23685A60E8E7009630
:102DDC003B46002240212046FFF742FF78B92023D2
:102DEC0084F83D3000E0022002B0BDE8F081012003
:102DFC00FAE70120F8E70220F6E70320F4E70320C6
:102E0C00F2E7000070B50D4E0D4D761BB61006D0D6
:102E1C00002455F8043B01349847A642F9D1094ED9
:102E2C00094D00F0D5F8761BB61006D0002455F8E5
:102E3C00043B01349847A642F9D170BD30360008E6
:102E4C00303600083836000830360008830730B5B5
:102E5C0048D0541E002A3FD00346CAB201E0013CC0
:102E6C003AD303F8012B9D07F9D1032C2DD9CDB200
:102E7C0045EA05250F2C45EA054536D9A4F1100283
:102E8C0022F00F0C03F1200EE6444FEA121C03F162
:102E9C00100242E9045542E9025510327245F8D14C
:102EAC000CF1010214F00C0F03EB021204F00F0CE6
:102EBC0013D0ACF1040323F003030433134442F89E
:102ECC00045B9342FBD10CF003042CB1CAB21C443A
:102EDC0003F8012B9C42FBD130BD64461346002CF9
:102EEC00F4D1F9E703461446BFE71A46A446E0E7D7
:102EFC00024B13B1024800F005B870470000000007
:102F0C001D2F0008002301461A46184600F01AB877
:102F1C0038B5084B084D5B1B9C1007D0043B1D4477
:102F2C00013C55F804399847002CF9D1BDE83840DC
:102F3C0000F054B83C36000838360008704700BF23
:102F4C00704700BF2DE9F047DFF87CA00646DAF8A1
:102F5C00000098460F469146FFF7F0FF1B4B1B688D
:102F6C00D3F8484124B365681F2D26DC5EB96B1C71
:102F7C000235DAF80000636044F82570FFF7E0FFD3
:102F8C000020BDE8F087012304EB8501C1F888908F
:102F9C00D4F88821AB401A43022EC4F88821C1F81A
:102FAC000881E4D1D4F88C211343C4F88C31DEE7CA
:102FBC0003F5A674C3F84841D5E7DAF80000FFF72B
:102FCC00BFFF4FF0FF30DCE7380400202C36000840
:102FDC00F8B500BFF8BC08BC9E467047F8B500BFFA
:082FEC00F8BC08BC9E467047CA
:102FF40073746172740D0A004578706563743A20C5
:10300400000000005265616C3A20000000000000DE
:10301400000000000000000000000000000000F8B4
:1030240000000000000000333000000000100C0617
:10303400100C0600000000000000000040C07840B2
:10304400C0784000043F04043F040400007088FC7E
:1030540008300000001820FF211E0000F008F000D6
:10306400E018000000211C031E211E0000F0088847
:10307400700000001E2123241927211010160E00B1
:10308400000000000000000000000000000000E05C
:103094001804020000000007182040000002041871
:1030A400E00000000040201807000000404080F0CD
:1030B400804040000202010F01020200000000F003
:1030C400000000000101011F0101010000000000D7
:1030D4000000000080B0700000000000000000004C
:1030E40000000000000101010101010100000000D5
:1030F400000000000030300000000000000000006C
:1031040080601804006018060100000000E0100848
:103114000810E000000F102020100F00001010F81D
:10312400000000000020203F20200000007008085C
:1031340008887000003028242221300000300888DC
:10314400884830000018202020110E000000C02004
:1031540010F8000000070424243F240000F8088825
:10316400880808000019212020110E0000E01088B2
:1031740088180000000F112020110E0000380808E4
:10318400C83808000000003F0000000000708808F4
:1031940008887000001C222121221C0000E0100875
:1031A4000810E0000000312222110F00000000C0CE
:1031B400C00000000000003030000000000000806B
:1031C400000000000000806000000000000080405B
:1031D4002010080000010204081020004040404074
:1031E40040404000040404040404040000081020C7
:1031F400408000000020100804020100007048080C
:103204000808F0000000003036010000C030C82873
:10321400E810E0000718272423140B000000C0382E
:10322400E0000000203C23020227382008F88888A8
:1032340088700000203F202020110E00C0300808B4
:1032440008083800071820202010080008F808088B
:103254000810E000203F202020100F0008F8888884
:10326400E8081000203F20202320180008F8888850
:10327400E8081000203F200003000000C0300808C8
:103284000838000007182020221E020008F8080051
:103294000008F808203F210101213F20000808F818
:1032A400080800000020203F20200000000008083B
:1032B400F8080800C08080807F00000008F888C0FB
:1032C40028180800203F20012638200008F80800AC
:1032D40000000000203F20202020300008F8F800E3
:1032E400F8F80800203F003F003F200008F830C0F5
:1032F4000008F808203F200007183F00E0100808E5
:103304000810E0000F10202020100F0008F8080813
:103314000808F000203F210101010000E010080826
:103324000810E0000F18242438504F0008F888884B
:1033340088887000203F2000030C3020007088082B
:10334400080838000038202121221C00180808F839
:10335400080818000000203F2000000008F80800BA
:103364000008F808001F202020201F00087888008B
:1033740000C83808000007380E010000F80800F8FB
:103384000008F800033C0700073C030008186880A5
:103394008068180820302C03032C30200838C8001B
:1033A400C83808000000203F20000000100808086A
:1033B400C83808002038262120201800000000FE0C
:1033C400020202000000007F40404000000C30C0B8
:1033D40000000000000000010638C00000020202E4
:1033E400FE000000004040407F0000000000040296
:1033F40002020400000000000000000000000000C1
:1034040000000000808080808080808000020204B0
:1034140000000000000000000000000000008080A8
:10342400808000000019242222223F2008F8008016
:1034340080000000003F112020110E0000000080D9
:1034440080800000000E1120202011000000008068
:103454008088F800000E112020103F20000080809A
:1034640080800000001F222222221300008080F0AE
:10347400888888180020203F2020000000008080D9
:1034840080808000006B94949493600008F800801E
:1034940080800000203F210000203F200080989879
:1034A400000000000020203F2020000000000080D9
:1034B4009898000000C08080807F000008F8000019
:1034C40080808000203F24022D302000000808F86E
:1034D400000000000020203F202000008080808029
:1034E40080808000203F20003F20003F80800080BB
:1034F40080800000203F210000203F2000008080C9
:1035040080800000001F202020201F008080008079
:103514008000000080FFA12020110E000000008028
:1035240080808000000E112020A0FF808080800019
:103534008080800020203F21200001000000808046
:10354400808080000033242424241900008080E03B
:10355400808000000000001F202000008080000008
:1035640000808000001F202020103F2080808000E9
:103574000080808000010E300806010080800080F9
:10358400008080800F300C030C300F00008080001E
:10359400808080000020312E0E3120008080800049
:1035A4000080808080818E701806010000808080F9
:1035B400808080000021302C222130000000000097
:1035C400807C020200000000003F40400000000038
:1035D400FF00000000000000FF0000000002027C69
:1035E400800000000040403F000000000006010190
:1035F40002020404000000000000000000000000BB
:10360400000000000102030406070809000000008E
:103614000102030402030405060708090A0B0C0D42
:0C3624000E0F101000000000100000202D
:08363000FD2E00083101000825
:043638000D01000878
:10363C000024F40001000000100000000000000055
:10364C0000000000FC02002064030020CC030020DA
:10365C00000000000000000000000000000000005E
:10366C00000000000000000000000000000000004E
:10367C00000000000000000000000000000000003E
:10368C00000000000000000000000000000000002E
:10369C00000000000000000000000000000000001E
:1036AC00000000000000000000000000000000000E
:1036BC0000000000000000000000000000000000FE
:1036CC0000000000000000000000000000000000EE
:1036DC0000000000000000000000000000000000DE
:1036EC0000000000000000000100000000000000CD
:1036FC000E33CDAB34126DE6ECDE05000B00000092
:10370C0000000000000000000000000000000000AD
:10371C00000000000000000000000000000000009D
:10372C00000000000000000000000000000000008D
:10373C00000000000000000000000000000000007D
:0C3A6C000000000000000000D005002059
:040000050800129548
:00000001FF
